{
  "contractName": "Voting",
  "abi": [
    {
      "inputs": [],
      "stateMutability": "nonpayable",
      "type": "constructor"
    },
    {
      "anonymous": false,
      "inputs": [],
      "name": "NewCandidate",
      "type": "event"
    },
    {
      "anonymous": false,
      "inputs": [],
      "name": "Voted",
      "type": "event"
    },
    {
      "inputs": [],
      "name": "MAX_VOTES_PER_VOTER",
      "outputs": [
        {
          "internalType": "uint256",
          "name": "",
          "type": "uint256"
        }
      ],
      "stateMutability": "view",
      "type": "function",
      "constant": true
    },
    {
      "inputs": [
        {
          "internalType": "uint256",
          "name": "",
          "type": "uint256"
        }
      ],
      "name": "candidates",
      "outputs": [
        {
          "internalType": "uint256",
          "name": "id",
          "type": "uint256"
        },
        {
          "internalType": "string",
          "name": "fname",
          "type": "string"
        },
        {
          "internalType": "string",
          "name": "lname",
          "type": "string"
        },
        {
          "internalType": "uint256",
          "name": "votes",
          "type": "uint256"
        }
      ],
      "stateMutability": "view",
      "type": "function",
      "constant": true
    },
    {
      "inputs": [],
      "name": "candidatesCount",
      "outputs": [
        {
          "internalType": "uint256",
          "name": "",
          "type": "uint256"
        }
      ],
      "stateMutability": "view",
      "type": "function",
      "constant": true
    },
    {
      "inputs": [
        {
          "internalType": "address",
          "name": "",
          "type": "address"
        }
      ],
      "name": "votes",
      "outputs": [
        {
          "internalType": "uint256",
          "name": "",
          "type": "uint256"
        }
      ],
      "stateMutability": "view",
      "type": "function",
      "constant": true
    },
    {
      "inputs": [
        {
          "internalType": "uint256",
          "name": "_candidateID",
          "type": "uint256"
        }
      ],
      "name": "vote",
      "outputs": [],
      "stateMutability": "nonpayable",
      "type": "function"
    },
    {
      "inputs": [
        {
          "internalType": "string",
          "name": "_fname",
          "type": "string"
        },
        {
          "internalType": "string",
          "name": "_lname",
          "type": "string"
        }
      ],
      "name": "addCandidate",
      "outputs": [],
      "stateMutability": "nonpayable",
      "type": "function"
    }
  ],
  "bytecode": "0x608060405234801561001057600080fd5b506000600181905550610d1f806100286000396000f3fe608060405234801561001057600080fd5b50600436106100625760003560e01c80630121b93f1461006757806326541b56146100835780632d35a8a21461009f5780633477ee2e146100bd578063416cef3e146100f0578063d8bff5a51461010e575b600080fd5b610081600480360381019061007c9190610541565b61013e565b005b61009d600480360381019061009891906106b4565b6102c0565b005b6100a7610394565b6040516100b4919061073b565b60405180910390f35b6100d760048036038101906100d29190610541565b61039a565b6040516100e794939291906107de565b60405180910390f35b6100f86104da565b604051610105919061073b565b60405180910390f35b6101286004803603810190610123919061088f565b6104df565b604051610135919061073b565b60405180910390f35b6003600260003373ffffffffffffffffffffffffffffffffffffffff1673ffffffffffffffffffffffffffffffffffffffff16815260200190815260200160002054106101c0576040517f08c379a00000000000000000000000000000000000000000000000000000000081526004016101b790610908565b60405180910390fd5b6000811180156101d257506001548111155b610211576040517f08c379a000000000000000000000000000000000000000000000000000000000815260040161020890610974565b60405180910390fd5b600260003373ffffffffffffffffffffffffffffffffffffffff1673ffffffffffffffffffffffffffffffffffffffff1681526020019081526020016000206000815480929190610261906109c3565b9190505550600080828152602001908152602001600020600301600081548092919061028c906109c3565b91905055507f650d798f3862ff92822acb5de11a760351b122df0cf4e24ef80b0a7ff82e0eb960405160405180910390a150565b600160008154809291906102d3906109c3565b9190505550600060405180608001604052806001548152602001848152602001838152602001600081525090508060008060015481526020019081526020016000206000820151816000015560208201518160010190816103349190610c17565b50604082015181600201908161034a9190610c17565b50606082015181600301559050507f06d1b12f5bd69b3324d93aa3b48faf821976e35c5e91686aa31ea31b1d01b21c60405160405180910390a161038f60015461013e565b505050565b60015481565b60006020528060005260406000206000915090508060000154908060010180546103c390610a3a565b80601f01602080910402602001604051908101604052809291908181526020018280546103ef90610a3a565b801561043c5780601f106104115761010080835404028352916020019161043c565b820191906000526020600020905b81548152906001019060200180831161041f57829003601f168201915b50505050509080600201805461045190610a3a565b80601f016020809104026020016040519081016040528092919081815260200182805461047d90610a3a565b80156104ca5780601f1061049f576101008083540402835291602001916104ca565b820191906000526020600020905b8154815290600101906020018083116104ad57829003601f168201915b5050505050908060030154905084565b600381565b60026020528060005260406000206000915090505481565b6000604051905090565b600080fd5b600080fd5b6000819050919050565b61051e8161050b565b811461052957600080fd5b50565b60008135905061053b81610515565b92915050565b60006020828403121561055757610556610501565b5b60006105658482850161052c565b91505092915050565b600080fd5b600080fd5b6000601f19601f8301169050919050565b7f4e487b7100000000000000000000000000000000000000000000000000000000600052604160045260246000fd5b6105c182610578565b810181811067ffffffffffffffff821117156105e0576105df610589565b5b80604052505050565b60006105f36104f7565b90506105ff82826105b8565b919050565b600067ffffffffffffffff82111561061f5761061e610589565b5b61062882610578565b9050602081019050919050565b82818337600083830152505050565b600061065761065284610604565b6105e9565b90508281526020810184848401111561067357610672610573565b5b61067e848285610635565b509392505050565b600082601f83011261069b5761069a61056e565b5b81356106ab848260208601610644565b91505092915050565b600080604083850312156106cb576106ca610501565b5b600083013567ffffffffffffffff8111156106e9576106e8610506565b5b6106f585828601610686565b925050602083013567ffffffffffffffff81111561071657610715610506565b5b61072285828601610686565b9150509250929050565b6107358161050b565b82525050565b6000602082019050610750600083018461072c565b92915050565b600081519050919050565b600082825260208201905092915050565b60005b83811015610790578082015181840152602081019050610775565b8381111561079f576000848401525b50505050565b60006107b082610756565b6107ba8185610761565b93506107ca818560208601610772565b6107d381610578565b840191505092915050565b60006080820190506107f3600083018761072c565b818103602083015261080581866107a5565b9050818103604083015261081981856107a5565b9050610828606083018461072c565b95945050505050565b600073ffffffffffffffffffffffffffffffffffffffff82169050919050565b600061085c82610831565b9050919050565b61086c81610851565b811461087757600080fd5b50565b60008135905061088981610863565b92915050565b6000602082840312156108a5576108a4610501565b5b60006108b38482850161087a565b91505092915050565b7f566f74657220686173206e6f20766f746573206c6566742e0000000000000000600082015250565b60006108f2601883610761565b91506108fd826108bc565b602082019050919050565b60006020820190508181036000830152610921816108e5565b9050919050565b7f43616e646964617465204944206973206f7574206f662072616e67652e000000600082015250565b600061095e601d83610761565b915061096982610928565b602082019050919050565b6000602082019050818103600083015261098d81610951565b9050919050565b7f4e487b7100000000000000000000000000000000000000000000000000000000600052601160045260246000fd5b60006109ce8261050b565b91507fffffffffffffffffffffffffffffffffffffffffffffffffffffffffffffffff8203610a00576109ff610994565b5b600182019050919050565b7f4e487b7100000000000000000000000000000000000000000000000000000000600052602260045260246000fd5b60006002820490506001821680610a5257607f821691505b602082108103610a6557610a64610a0b565b5b50919050565b60008190508160005260206000209050919050565b60006020601f8301049050919050565b600082821b905092915050565b600060088302610acd7fffffffffffffffffffffffffffffffffffffffffffffffffffffffffffffffff82610a90565b610ad78683610a90565b95508019841693508086168417925050509392505050565b6000819050919050565b6000610b14610b0f610b0a8461050b565b610aef565b61050b565b9050919050565b6000819050919050565b610b2e83610af9565b610b42610b3a82610b1b565b848454610a9d565b825550505050565b600090565b610b57610b4a565b610b62818484610b25565b505050565b5b81811015610b8657610b7b600082610b4f565b600181019050610b68565b5050565b601f821115610bcb57610b9c81610a6b565b610ba584610a80565b81016020851015610bb4578190505b610bc8610bc085610a80565b830182610b67565b50505b505050565b600082821c905092915050565b6000610bee60001984600802610bd0565b1980831691505092915050565b6000610c078383610bdd565b9150826002028217905092915050565b610c2082610756565b67ffffffffffffffff811115610c3957610c38610589565b5b610c438254610a3a565b610c4e828285610b8a565b600060209050601f831160018114610c815760008415610c6f578287015190505b610c798582610bfb565b865550610ce1565b601f198416610c8f86610a6b565b60005b82811015610cb757848901518255600182019150602085019450602081019050610c92565b86831015610cd45784890151610cd0601f891682610bdd565b8355505b6001600288020188555050505b50505050505056fea264697066735822122005de1969f331c501715305651d3cbbda3a0726fc2d4779f505d6f47210bdc7fc64736f6c634300080f0033",
  "immutableReferences": {},
  "source": "// SPDX-License-Identifier: MIT\npragma solidity >=0.4.22 <0.9.0;\n\ncontract Voting {\n   uint public constant MAX_VOTES_PER_VOTER = 3;\n  struct Candidate {\n    uint id;\n    string fname;\n    string lname;\n    uint votes;\n  }\n  event Voted ();\n  event NewCandidate ();\n   mapping(uint => Candidate) public candidates;\n  uint public candidatesCount;\n\n  mapping(address => uint) public votes;\n\n  constructor() {\n    candidatesCount = 0;\n  }\n\n  function vote(uint _candidateID) public {\n    require(votes[msg.sender] < MAX_VOTES_PER_VOTER, \"Voter has no votes left.\");\n    require(_candidateID > 0 && _candidateID <= candidatesCount, \"Candidate ID is out of range.\");\n\n    votes[msg.sender]++;\n    candidates[_candidateID].votes++;\n\n    emit Voted();\n  }\n\n  function addCandidate(string memory _fname, string memory _lname) public {\n    candidatesCount++;\n\n    Candidate memory candidate = Candidate(candidatesCount, _fname, _lname, 0);\n    candidates[candidatesCount] = candidate;\n\n    emit NewCandidate();\n    vote(candidatesCount);\n  }\n}\n",
  "sourcePath": "/Users/wmrylwy/Desktop/crypto/voting/contracts/Voting.sol",
  "compiler": {
    "name": "solc",
    "version": "0.8.15+commit.e14f2714.Emscripten.clang"
  },
  "schemaVersion": "3.4.8",
  "updatedAt": "2022-07-09T16:15:59.042Z",
  "networkType": "ethereum",
  "devdoc": {
    "kind": "dev",
    "methods": {},
    "version": 1
  },
  "userdoc": {
    "kind": "user",
    "methods": {},
    "version": 1
  }
}